:100000000C9437000C948F000C948F000C948F008C
:100010000C948F000C948F000C948F000C948F0024
:100020000C948F000C948F000C948F000C948F0014
:100030000C948F000C948F000C948F000C948F0004
:100040000C948F000C948F000C948F000C948F00F4
:100050000C948F000C948F000C948F000C948F00E4
:100060000C948F000C948F0001000101800011247A
:100070001FBECFEFD8E0DEBFCDBFE8E6F0E040E046
:1000800017C0B591A59135912591059107FD0CC03B
:1000900095918591EF01F92FE82F05900D92A21708
:1000A000B307D9F7FE0104C01D92A217B307E1F709
:1000B000ED36F40731F70E9473000C948400F89435
:0200C000FFCF70
:1000C2008EE29CEF909385008093840010928000D2
:1000D20085E080938100B09BFECF1092810081E089
:0400E20086BB08953C
:1000E600509AC1E00E946100809100018F5F809369
:1000F60000018530B8F38BB18C278BB910920001C3
:02010600F1CF37
:10010800EC010E9494000E949300CE010E94950089
:06011800CE010E949100DF
:04011E000C9400003D
:040122000E945F00D8
:0201260008953A
:02012800089538
:02012A00089536
:00000001FF
