:100000000C9437000C9491010C9491010C94910183
:100010000C9491010C9491010C9491010C94910118
:100020000C9491010C9491010C9491010C94910108
:100030000C9491010C9491010C9491010C949101F8
:100040000C9491010C9491010C9491010C949101E8
:100050000C9491010C9491010C9491010C949101D8
:100060000C9491010C949101010001018000112474
:100070001FBECFEFD8E0DEBFCDBFE8E6F0E040E046
:1000800017C0B591A59135912591059107FD0CC03B
:1000900095918591EF01F92FE82F05900D92A21708
:1000A000B307D9F7FE0104C01D92A217B307E1F709
:1000B000ED36F40731F70E946D000C948601F89438
:0200C000FFCF70
:1000C20048656C6C6F006D3A2020733A20206D7386
:0700D2003A2020003030004D
:1000DA0084B1816884B92198299A0E94DF000E941C
:1000EA006E0162EC70E080E00E9400012FE78AE175
:1000FA0096E0215080409040E1F700C000000E9445
:10010A006E0168EC70E080E00E9400012FE38DE050
:10011A0093E0215080409040E1F700C0000063E086
:10012A0081E00E945E0166ED70E080E00E940001BD
:10013A002FE38DE093E0215080409040E1F700C02A
:10014A00000067E081E00E945E0166ED70E080E0F9
:10015A000E9400012FE38DE093E0215080409040FF
:10016A00E1F700C000006CE081E00E945E0166EDEC
:10017A0070E080E00E9400012FE38DE093E02150BF
:10018A0080409040E1F700C00000C1E00E947B017E
:10019A00809100018F5F809300018A3028F085B139
:1001AA008C2785B9109200011999F0CF85B1805832
:0401BA0085B9ECCF48
:1001BE008FEF8AB987E893E10197F1F700C000004D
:1001CE0083E30E94200182E30E94200188E20E94C4
:1001DE0020018CE00E94200186E00E94200181E037
:1001EE000E94200181EE94E00197F1F700C000001B
:0201FE00089562
:10020000CF92DF92EF92CF936B01E82EFB018491A6
:10021000E7FC8081882379F0C0E00E943F01CF5F36
:10022000AE2DC6018C0F911DA11DFC018491A7FD6F
:1002300080818111F2CFCF91EF90DF90CF90089520
:100240009BB19F70282F207F922B9BB95898599A69
:1002500000C0599832E43A95F1F700C02BB12F70E5
:1002600030E1839FC0011124822B8BB95898599A91
:0E02700000C0599882E48A95F1F700C0089505
:10027E009BB19F70282F207F922B9BB9589A599A29
:10028E0000C0599832E43A95F1F700C02BB12F70A7
:10029E0030E1839FC0011124822B8BB9589A599A51
:0E02AE0000C0599882E48A95F1F700C00895C7
:1002BC00813031F4603158F481E80E9420010895B6
:1002CC00823029F4603118F482EC0E9420010895E8
:1002DC0081E00E94200183EF91E00197F1F700C0CB
:0A02EC00000080E80E942001089540
:1002F6008DE986BD14BC85E085BDA89BFECF15BCE7
:0603060081E085BB0895B3
:10030C00EC010E9496010E949501CE010E9497017A
:06031C00CE010E949301D6
:040322000C94000037
:040326000E945F00D2
:02032A00089534
:02032C00089532
:02032E00089530
:00000001FF
