:100000000C9437000C944C010C944C010C944C0152
:100010000C944C010C944C010C944C010C944C012C
:100020000C944C010C944C010C944C010C944C011C
:100030000C944C010C944C010C944C010C944C010C
:100040000C944C010C944C010C944C010C944C01FC
:100050000C944C010C944C010C944C010C944C01EC
:100060000C944C010C944C010100010180001124FE
:100070001FBECFEFD8E0DEBFCDBFE8E6F0E040E046
:1000800017C0B591A59135912591059107FD0CC03B
:1000900095918591EF01F92FE82F05900D92A21708
:1000A000B307D9F7FE0104C01D92A217B307E1F709
:1000B000ED36F40731F70E9470000C944101F8947A
:0200C000FFCF70
:1000C20048656C6C6F2057656C636F6D6500456E9B
:0E00D2007465723A00636F756E74203A2000F8
:1000E0000E9409010E94340162EC70E080E00E94ED
:1000F000AB0060E082E00E94240160ED70E080E0EF
:100100000E94AB008DE00E94CB002FE78AE196E0D1
:10011000215080409040E1F700C000000E9434016F
:10012000809100018F5F8093000167ED70E080E0B7
:100130000E94AB0080EC0E94CB00809100010E94E5
:10014000EA002FE986E891E0215080409040E1F7F5
:0601500000C00000E3CF37
:10015600CF92DF92EF92CF936B01E82EFB01849151
:10016600E7FC8081882379F0C0E00E94EA00CF5F37
:10017600AE2DC6018C0F911DA11DFC018491A7FD1A
:1001860080818111F2CFCF91EF90DF90CF900895CB
:1001960095B19F70282F207F922B95B92898299A80
:1001A60000C0299832E43A95F1F700C025B12F70C6
:1001B60030E1839FC0011124822B85B92898299AA2
:0E01C60000C0299882E48A95F1F700C00895E0
:1001D40095B19F70282F207F922B95B9289A299A40
:1001E40000C0299832E43A95F1F700C025B12F7088
:1001F40030E1839FC0011124822B85B9289A299A62
:0E02040000C0299882E48A95F1F700C00895A1
:100212008FEF84B987E893E10197F1F700C00000FE
:1002220083E30E94CB0082E30E94CB0088E20E941B
:10023200CB008CE00E94CB0086E00E94CB0081E0E4
:060242000E94CB000895AC
:10024800813031F4603158F481E80E94CB00089580
:10025800823029F4603118F482EC0E94CB000895B2
:1002680081E00E94CB0081EE94E00197F1F700C095
:0A027800000080E80E94CB0008950A
:10028200EC010E9451010E945001CE010E945201D4
:06029200CE010E944E01A6
:040298000C940000C2
:04029C000E945F005D
:0202A0000895BF
:0202A2000895BD
:0202A4000895BB
:00000001FF
